{
  "contractName": "FishmealTraceability",
  "abi": [
    {
      "anonymous": false,
      "inputs": [
        {
          "indexed": false,
          "internalType": "uint256",
          "name": "id",
          "type": "uint256"
        },
        {
          "indexed": false,
          "internalType": "string",
          "name": "enterprise",
          "type": "string"
        },
        {
          "indexed": false,
          "internalType": "uint256",
          "name": "kilograms",
          "type": "uint256"
        },
        {
          "indexed": false,
          "internalType": "string",
          "name": "fishingArea",
          "type": "string"
        },
        {
          "indexed": false,
          "internalType": "bool",
          "name": "exist",
          "type": "bool"
        },
        {
          "indexed": false,
          "internalType": "uint256",
          "name": "createdAt",
          "type": "uint256"
        }
      ],
      "name": "AnchovyBatchCreated",
      "type": "event"
    },
    {
      "anonymous": false,
      "inputs": [
        {
          "indexed": false,
          "internalType": "uint256",
          "name": "id",
          "type": "uint256"
        },
        {
          "indexed": false,
          "internalType": "bool",
          "name": "exist",
          "type": "bool"
        }
      ],
      "name": "AnchovyBatchToggleExist",
      "type": "event"
    },
    {
      "anonymous": false,
      "inputs": [
        {
          "indexed": false,
          "internalType": "uint256",
          "name": "id",
          "type": "uint256"
        },
        {
          "indexed": false,
          "internalType": "uint256",
          "name": "kilograms",
          "type": "uint256"
        },
        {
          "indexed": false,
          "internalType": "string",
          "name": "processor_name",
          "type": "string"
        },
        {
          "indexed": false,
          "internalType": "uint256",
          "name": "id_anchovy_batch",
          "type": "uint256"
        },
        {
          "indexed": false,
          "internalType": "bool",
          "name": "exist",
          "type": "bool"
        },
        {
          "indexed": false,
          "internalType": "uint256",
          "name": "craetedAt",
          "type": "uint256"
        }
      ],
      "name": "FishmealBatchCreated",
      "type": "event"
    },
    {
      "anonymous": false,
      "inputs": [
        {
          "indexed": false,
          "internalType": "uint256",
          "name": "id",
          "type": "uint256"
        },
        {
          "indexed": false,
          "internalType": "bool",
          "name": "exist",
          "type": "bool"
        }
      ],
      "name": "FishmealBatchToggleExist",
      "type": "event"
    },
    {
      "anonymous": false,
      "inputs": [
        {
          "indexed": false,
          "internalType": "uint256",
          "name": "id",
          "type": "uint256"
        },
        {
          "indexed": false,
          "internalType": "string",
          "name": "distributor",
          "type": "string"
        },
        {
          "indexed": false,
          "internalType": "uint256",
          "name": "fishmeal_batch_id",
          "type": "uint256"
        },
        {
          "indexed": false,
          "internalType": "uint256",
          "name": "init_packages_id",
          "type": "uint256"
        },
        {
          "indexed": false,
          "internalType": "uint256",
          "name": "packagesCount",
          "type": "uint256"
        },
        {
          "indexed": false,
          "internalType": "uint256",
          "name": "final_packages_id",
          "type": "uint256"
        },
        {
          "indexed": false,
          "internalType": "uint256",
          "name": "createdAt",
          "type": "uint256"
        },
        {
          "indexed": false,
          "internalType": "bool",
          "name": "exist",
          "type": "bool"
        }
      ],
      "name": "FishmealPackagesCreated",
      "type": "event"
    },
    {
      "anonymous": false,
      "inputs": [
        {
          "indexed": false,
          "internalType": "uint256",
          "name": "id",
          "type": "uint256"
        },
        {
          "indexed": false,
          "internalType": "bool",
          "name": "exist",
          "type": "bool"
        }
      ],
      "name": "FishmealPackagesToggleExist",
      "type": "event"
    },
    {
      "inputs": [],
      "name": "SCALE_FACTOR",
      "outputs": [
        {
          "internalType": "uint256",
          "name": "",
          "type": "uint256"
        }
      ],
      "stateMutability": "view",
      "type": "function",
      "constant": true
    },
    {
      "inputs": [],
      "name": "anchovy_batch_counter",
      "outputs": [
        {
          "internalType": "uint256",
          "name": "",
          "type": "uint256"
        }
      ],
      "stateMutability": "view",
      "type": "function",
      "constant": true
    },
    {
      "inputs": [
        {
          "internalType": "uint256",
          "name": "",
          "type": "uint256"
        }
      ],
      "name": "anchovy_batches",
      "outputs": [
        {
          "internalType": "uint256",
          "name": "id",
          "type": "uint256"
        },
        {
          "internalType": "string",
          "name": "enterprise",
          "type": "string"
        },
        {
          "internalType": "uint256",
          "name": "kilograms",
          "type": "uint256"
        },
        {
          "internalType": "string",
          "name": "fishingArea",
          "type": "string"
        },
        {
          "internalType": "bool",
          "name": "exist",
          "type": "bool"
        },
        {
          "internalType": "uint256",
          "name": "createdAt",
          "type": "uint256"
        }
      ],
      "stateMutability": "view",
      "type": "function",
      "constant": true
    },
    {
      "inputs": [],
      "name": "fishmeal_batch_counter",
      "outputs": [
        {
          "internalType": "uint256",
          "name": "",
          "type": "uint256"
        }
      ],
      "stateMutability": "view",
      "type": "function",
      "constant": true
    },
    {
      "inputs": [
        {
          "internalType": "uint256",
          "name": "",
          "type": "uint256"
        }
      ],
      "name": "fishmeal_batches",
      "outputs": [
        {
          "internalType": "uint256",
          "name": "id",
          "type": "uint256"
        },
        {
          "internalType": "uint256",
          "name": "kilograms",
          "type": "uint256"
        },
        {
          "internalType": "string",
          "name": "processor_name",
          "type": "string"
        },
        {
          "internalType": "uint256",
          "name": "id_anchovy_batch",
          "type": "uint256"
        },
        {
          "internalType": "bool",
          "name": "exist",
          "type": "bool"
        },
        {
          "internalType": "uint256",
          "name": "createdAt",
          "type": "uint256"
        }
      ],
      "stateMutability": "view",
      "type": "function",
      "constant": true
    },
    {
      "inputs": [],
      "name": "fishmeal_package_batch_counter",
      "outputs": [
        {
          "internalType": "uint256",
          "name": "",
          "type": "uint256"
        }
      ],
      "stateMutability": "view",
      "type": "function",
      "constant": true
    },
    {
      "inputs": [
        {
          "internalType": "uint256",
          "name": "",
          "type": "uint256"
        }
      ],
      "name": "fishmeal_packages_batches",
      "outputs": [
        {
          "internalType": "uint256",
          "name": "id",
          "type": "uint256"
        },
        {
          "internalType": "string",
          "name": "distributor",
          "type": "string"
        },
        {
          "internalType": "uint256",
          "name": "fishmeal_batch_id",
          "type": "uint256"
        },
        {
          "internalType": "uint256",
          "name": "init_packages_id",
          "type": "uint256"
        },
        {
          "internalType": "uint256",
          "name": "packagesCount",
          "type": "uint256"
        },
        {
          "internalType": "uint256",
          "name": "final_packages_id",
          "type": "uint256"
        },
        {
          "internalType": "uint256",
          "name": "createdAt",
          "type": "uint256"
        },
        {
          "internalType": "bool",
          "name": "exist",
          "type": "bool"
        }
      ],
      "stateMutability": "view",
      "type": "function",
      "constant": true
    },
    {
      "inputs": [
        {
          "internalType": "string",
          "name": "_enterprise",
          "type": "string"
        },
        {
          "internalType": "uint256",
          "name": "_kilograms",
          "type": "uint256"
        },
        {
          "internalType": "string",
          "name": "_fishingArea",
          "type": "string"
        }
      ],
      "name": "createAnchovyBatch",
      "outputs": [],
      "stateMutability": "nonpayable",
      "type": "function"
    },
    {
      "inputs": [
        {
          "internalType": "uint256",
          "name": "_kilograms",
          "type": "uint256"
        },
        {
          "internalType": "string",
          "name": "_processor_name",
          "type": "string"
        },
        {
          "internalType": "uint256",
          "name": "_id_anchovy_batch",
          "type": "uint256"
        }
      ],
      "name": "createFishmealBatch",
      "outputs": [],
      "stateMutability": "nonpayable",
      "type": "function"
    },
    {
      "inputs": [
        {
          "internalType": "uint256",
          "name": "_fishmeal_batch_id",
          "type": "uint256"
        },
        {
          "internalType": "string",
          "name": "_distributor",
          "type": "string"
        },
        {
          "internalType": "uint256",
          "name": "_packages_count",
          "type": "uint256"
        }
      ],
      "name": "createFishmealPackages",
      "outputs": [],
      "stateMutability": "nonpayable",
      "type": "function"
    },
    {
      "inputs": [
        {
          "internalType": "uint256",
          "name": "_id",
          "type": "uint256"
        }
      ],
      "name": "toggleExistAnchovyBatch",
      "outputs": [],
      "stateMutability": "nonpayable",
      "type": "function"
    },
    {
      "inputs": [
        {
          "internalType": "uint256",
          "name": "_id",
          "type": "uint256"
        }
      ],
      "name": "toggleExistFishmealBatch",
      "outputs": [],
      "stateMutability": "nonpayable",
      "type": "function"
    },
    {
      "inputs": [
        {
          "internalType": "uint256",
          "name": "_id",
          "type": "uint256"
        }
      ],
      "name": "toggleExistFishemealPackagesBatch",
      "outputs": [],
      "stateMutability": "nonpayable",
      "type": "function"
    }
  ],
  "bytecode": "0x6080604052600080556000600155600060025534801561001e57600080fd5b506114ff8061002e6000396000f3fe608060405234801561001057600080fd5b50600436106100cf5760003560e01c806384ef04f51161008c5780639b7eaa89116100665780639b7eaa8914610223578063a5404e0b1461023f578063af25bdea1461025b578063ce4b5bbe14610277576100cf565b806384ef04f5146101b257806390930a4c146101e757806393dc76d814610205576100cf565b8063101f140f146100d45780631ab90d10146100f05780632b2c747d14610127578063611436401461014357806365e0a97e1461015f5780638008280a14610194575b600080fd5b6100ee60048036038101906100e99190610f51565b610295565b005b61010a60048036038101906101059190610f51565b6103e2565b60405161011e98979695949392919061118b565b60405180910390f35b610141600480360381019061013c9190610f7e565b6104bf565b005b61015d60048036038101906101589190610ec6565b6105cf565b005b61017960048036038101906101749190610f51565b6106f0565b60405161018b9695949392919061111c565b60405180910390f35b61019c610849565b6040516101a99190611053565b60405180910390f35b6101cc60048036038101906101c79190610f51565b61084f565b6040516101de96959493929190611210565b60405180910390f35b6101ef610920565b6040516101fc9190611053565b60405180910390f35b61020d610926565b60405161021a9190611053565b60405180910390f35b61023d60048036038101906102389190610f51565b61092c565b005b61025960048036038101906102549190610f51565b610b01565b005b61027560048036038101906102709190610f7e565b610c62565b005b61027f610d99565b60405161028c9190611053565b60405180910390f35b6000600460008381526020019081526020016000206040518060c001604052908160008201548152602001600182015481526020016002820180546102d990611354565b80601f016020809104026020016040519081016040528092919081815260200182805461030590611354565b80156103525780601f1061032757610100808354040283529160200191610352565b820191906000526020600020905b81548152906001019060200180831161033557829003601f168201915b50505050508152602001600382015481526020016004820160009054906101000a900460ff1615151515815260200160058201548152505090508060800151158160800190151590811515815250507fc6cab3e7bf8d1fccac2fd06e69f64f97da14e57dc543e9b9dc8c71492b6c68008282608001516040516103d692919061106e565b60405180910390a15050565b600560205280600052604060002060009150905080600001549080600101805461040b90611354565b80601f016020809104026020016040519081016040528092919081815260200182805461043790611354565b80156104845780601f1061045957610100808354040283529160200191610484565b820191906000526020600020905b81548152906001019060200180831161046757829003601f168201915b5050505050908060020154908060030154908060040154908060050154908060060154908060070160009054906101000a900460ff16905088565b600160008154809291906104d2906113b7565b91905055506040518060c001604052806001548152602001848152602001838152602001828152602001600115158152602001428152506004600060015481526020019081526020016000206000820151816000015560208201518160010155604082015181600201908051906020019061054e929190610d9e565b506060820151816003015560808201518160040160006101000a81548160ff02191690831515021790555060a082015181600501559050507fcc8579d5451add97c5eaa019cecb2cb23a47dc8ab242915370b3855947e794096001548484846001426040516105c296959493929190611210565b60405180910390a1505050565b6000808154809291906105e1906113b7565b91905055506040518060c001604052806000548152602001848152602001838152602001828152602001600115158152602001428152506003600080548152602001908152602001600020600082015181600001556020820151816001019080519060200190610652929190610d9e565b50604082015181600201556060820151816003019080519060200190610679929190610d9e565b5060808201518160040160006101000a81548160ff02191690831515021790555060a082015181600501559050507f5851287074a11adc43217221b516341fbb7d87ea3f64ea0e107d8ba544a9464f6000548484846001426040516106e39695949392919061111c565b60405180910390a1505050565b600360205280600052604060002060009150905080600001549080600101805461071990611354565b80601f016020809104026020016040519081016040528092919081815260200182805461074590611354565b80156107925780601f1061076757610100808354040283529160200191610792565b820191906000526020600020905b81548152906001019060200180831161077557829003601f168201915b5050505050908060020154908060030180546107ad90611354565b80601f01602080910402602001604051908101604052809291908181526020018280546107d990611354565b80156108265780601f106107fb57610100808354040283529160200191610826565b820191906000526020600020905b81548152906001019060200180831161080957829003601f168201915b5050505050908060040160009054906101000a900460ff16908060050154905086565b60005481565b600460205280600052604060002060009150905080600001549080600101549080600201805461087e90611354565b80601f01602080910402602001604051908101604052809291908181526020018280546108aa90611354565b80156108f75780601f106108cc576101008083540402835291602001916108f7565b820191906000526020600020905b8154815290600101906020018083116108da57829003601f168201915b5050505050908060030154908060040160009054906101000a900460ff16908060050154905086565b60015481565b60025481565b6000600360008381526020019081526020016000206040518060c00160405290816000820154815260200160018201805461096690611354565b80601f016020809104026020016040519081016040528092919081815260200182805461099290611354565b80156109df5780601f106109b4576101008083540402835291602001916109df565b820191906000526020600020905b8154815290600101906020018083116109c257829003601f168201915b5050505050815260200160028201548152602001600382018054610a0290611354565b80601f0160208091040260200160405190810160405280929190818152602001828054610a2e90611354565b8015610a7b5780601f10610a5057610100808354040283529160200191610a7b565b820191906000526020600020905b815481529060010190602001808311610a5e57829003601f168201915b505050505081526020016004820160009054906101000a900460ff1615151515815260200160058201548152505090508060800151158160800190151590811515815250507fe0385d4ccc40809463d139115d6ea27d27e2c0d5937b045b4326452a8c7df4e4828260800151604051610af592919061106e565b60405180910390a15050565b6000600560008381526020019081526020016000206040518061010001604052908160008201548152602001600182018054610b3c90611354565b80601f0160208091040260200160405190810160405280929190818152602001828054610b6890611354565b8015610bb55780601f10610b8a57610100808354040283529160200191610bb5565b820191906000526020600020905b815481529060010190602001808311610b9857829003601f168201915b5050505050815260200160028201548152602001600382015481526020016004820154815260200160058201548152602001600682015481526020016007820160009054906101000a900460ff16151515158152505090508060e001518160e00190151590811515815250507fdad79f47dfeed4ea6a8beb95bab4b6dc85279a18ea9f6b8c634d0a85f1c32ac9828260e00151604051610c5692919061106e565b60405180910390a15050565b60026000815480929190610c75906113b7565b919050555060405180610100016040528060025481526020018381526020018481526020016001815260200182815260200182815260200142815260200160011515815250600560006002548152602001908152602001600020600082015181600001556020820151816001019080519060200190610cf5929190610d9e565b5060408201518160020155606082015181600301556080820151816004015560a0820151816005015560c0820151816006015560e08201518160070160006101000a81548160ff0219169083151502179055509050507f53f37eec6a3a4fb8320997ee5c1efe5df1b668671895950e139116c8fbe7f1a4600254838560018586426001604051610d8c989796959493929190611097565b60405180910390a1505050565b606481565b828054610daa90611354565b90600052602060002090601f016020900481019282610dcc5760008555610e13565b82601f10610de557805160ff1916838001178555610e13565b82800160010185558215610e13579182015b82811115610e12578251825591602001919060010190610df7565b5b509050610e209190610e24565b5090565b5b80821115610e3d576000816000905550600101610e25565b5090565b6000610e54610e4f8461129d565b611278565b905082815260208101848484011115610e7057610e6f611492565b5b610e7b848285611312565b509392505050565b600082601f830112610e9857610e9761148d565b5b8135610ea8848260208601610e41565b91505092915050565b600081359050610ec0816114b2565b92915050565b600080600060608486031215610edf57610ede61149c565b5b600084013567ffffffffffffffff811115610efd57610efc611497565b5b610f0986828701610e83565b9350506020610f1a86828701610eb1565b925050604084013567ffffffffffffffff811115610f3b57610f3a611497565b5b610f4786828701610e83565b9150509250925092565b600060208284031215610f6757610f6661149c565b5b6000610f7584828501610eb1565b91505092915050565b600080600060608486031215610f9757610f9661149c565b5b6000610fa586828701610eb1565b935050602084013567ffffffffffffffff811115610fc657610fc5611497565b5b610fd286828701610e83565b9250506040610fe386828701610eb1565b9150509250925092565b610ff6816112ea565b82525050565b61100581611300565b82525050565b6000611016826112ce565b61102081856112d9565b9350611030818560208601611321565b611039816114a1565b840191505092915050565b61104d816112f6565b82525050565b60006020820190506110686000830184611044565b92915050565b60006040820190506110836000830185611044565b6110906020830184610fed565b9392505050565b6000610100820190506110ad600083018b611044565b81810360208301526110bf818a61100b565b90506110ce6040830189611044565b6110db6060830188610ffc565b6110e86080830187611044565b6110f560a0830186611044565b61110260c0830185611044565b61110f60e0830184610fed565b9998505050505050505050565b600060c0820190506111316000830189611044565b8181036020830152611143818861100b565b90506111526040830187611044565b8181036060830152611164818661100b565b90506111736080830185610fed565b61118060a0830184611044565b979650505050505050565b6000610100820190506111a1600083018b611044565b81810360208301526111b3818a61100b565b90506111c26040830189611044565b6111cf6060830188611044565b6111dc6080830187611044565b6111e960a0830186611044565b6111f660c0830185611044565b61120360e0830184610fed565b9998505050505050505050565b600060c0820190506112256000830189611044565b6112326020830188611044565b8181036040830152611244818761100b565b90506112536060830186611044565b6112606080830185610fed565b61126d60a0830184611044565b979650505050505050565b6000611282611293565b905061128e8282611386565b919050565b6000604051905090565b600067ffffffffffffffff8211156112b8576112b761145e565b5b6112c1826114a1565b9050602081019050919050565b600081519050919050565b600082825260208201905092915050565b60008115159050919050565b6000819050919050565b600061130b826112f6565b9050919050565b82818337600083830152505050565b60005b8381101561133f578082015181840152602081019050611324565b8381111561134e576000848401525b50505050565b6000600282049050600182168061136c57607f821691505b602082108114156113805761137f61142f565b5b50919050565b61138f826114a1565b810181811067ffffffffffffffff821117156113ae576113ad61145e565b5b80604052505050565b60006113c2826112f6565b91507fffffffffffffffffffffffffffffffffffffffffffffffffffffffffffffffff8214156113f5576113f4611400565b5b600182019050919050565b7f4e487b7100000000000000000000000000000000000000000000000000000000600052601160045260246000fd5b7f4e487b7100000000000000000000000000000000000000000000000000000000600052602260045260246000fd5b7f4e487b7100000000000000000000000000000000000000000000000000000000600052604160045260246000fd5b600080fd5b600080fd5b600080fd5b600080fd5b6000601f19601f8301169050919050565b6114bb816112f6565b81146114c657600080fd5b5056fea264697066735822122072bd960953cb21e9d32d0a556c7f3dc08fb155098810b3e4afba2c8d95bcabb764736f6c63430008060033",
  "immutableReferences": {},
  "source": "/// SPDX-License-Identifier: MIT\r\npragma solidity ^0.8.6;\r\n\r\ncontract FishmealTraceability {\r\n    uint256 public constant SCALE_FACTOR = 100;\r\n    uint256 public anchovy_batch_counter = 0;\r\n    uint256 public fishmeal_batch_counter = 0;\r\n    uint256 public fishmeal_package_batch_counter = 0;\r\n\r\n    struct AnchovyBatch {\r\n        uint256 id;\r\n        string enterprise;\r\n        uint256 kilograms;\r\n        string fishingArea;\r\n        bool exist;\r\n        uint256 createdAt;\r\n    }\r\n    \r\n    struct FishmealBatch {\r\n        uint256 id;\r\n        uint256 kilograms;\r\n        string processor_name ;\r\n        uint256 id_anchovy_batch;\r\n        bool exist;\r\n        uint256 createdAt;\r\n    }\r\n\r\n    struct FishmealPackages {\r\n        uint256 id;\r\n        string distributor;\r\n        uint256 fishmeal_batch_id;\r\n        uint256 init_packages_id;\r\n        uint256 packagesCount;\r\n        uint256 final_packages_id;\r\n        uint256 createdAt;\r\n        bool exist;\r\n    }\r\n\r\n    event AnchovyBatchCreated(\r\n        uint256 id,\r\n        string enterprise,\r\n        uint256 kilograms,\r\n        string fishingArea,\r\n        bool exist,\r\n        uint256 createdAt\r\n    );\r\n\r\n    event FishmealBatchCreated(\r\n        uint256 id,\r\n        uint256 kilograms,\r\n        string processor_name,\r\n        uint256 id_anchovy_batch,\r\n        bool exist,\r\n        uint256 craetedAt\r\n    );\r\n\r\n    event FishmealPackagesCreated(\r\n        uint256 id,\r\n        string distributor,\r\n        uint256 fishmeal_batch_id,\r\n        uint256 init_packages_id,\r\n        uint256 packagesCount,\r\n        uint256 final_packages_id,\r\n        uint256 createdAt,\r\n        bool exist\r\n    );\r\n\r\n    event AnchovyBatchToggleExist(uint id, bool exist);\r\n    event FishmealBatchToggleExist(uint id, bool exist);\r\n    event FishmealPackagesToggleExist(uint id, bool exist);\r\n\r\n    mapping(uint256 => AnchovyBatch) public anchovy_batches;\r\n    mapping(uint256 => FishmealBatch) public fishmeal_batches;\r\n    mapping(uint256 => FishmealPackages) public fishmeal_packages_batches;\r\n\r\n    function createAnchovyBatch(string memory _enterprise, uint256 _kilograms, string memory _fishingArea) public {\r\n        anchovy_batch_counter++;\r\n        anchovy_batches[anchovy_batch_counter] = AnchovyBatch(\r\n            anchovy_batch_counter,\r\n            _enterprise,\r\n            _kilograms,\r\n            _fishingArea,\r\n            true,\r\n            block.timestamp\r\n        );   \r\n        emit AnchovyBatchCreated(anchovy_batch_counter, _enterprise, _kilograms, _fishingArea, true, block.timestamp);\r\n    }\r\n\r\n    function createFishmealBatch(uint256 _kilograms, string memory _processor_name, uint256 _id_anchovy_batch) public {\r\n        fishmeal_batch_counter++;\r\n        fishmeal_batches[fishmeal_batch_counter] = FishmealBatch(\r\n            fishmeal_batch_counter,\r\n            _kilograms,\r\n            _processor_name,\r\n            _id_anchovy_batch,\r\n            true,\r\n            block.timestamp\r\n        );\r\n        emit FishmealBatchCreated(fishmeal_batch_counter, _kilograms, _processor_name, _id_anchovy_batch, true, block.timestamp);\r\n    }\r\n\r\n    function createFishmealPackages(uint256 _fishmeal_batch_id, string memory _distributor, uint256 _packages_count) public {\r\n        fishmeal_package_batch_counter++;\r\n        fishmeal_packages_batches[fishmeal_package_batch_counter] = FishmealPackages(\r\n            fishmeal_package_batch_counter,\r\n            _distributor,\r\n            _fishmeal_batch_id,\r\n            1,\r\n            _packages_count,\r\n            _packages_count,\r\n            block.timestamp,\r\n            true\r\n        );\r\n        emit FishmealPackagesCreated(fishmeal_package_batch_counter, _distributor, _fishmeal_batch_id, 1, _packages_count, _packages_count, block.timestamp, true);\r\n    }\r\n\r\n    function toggleExistAnchovyBatch(uint256 _id) public {\r\n        AnchovyBatch memory _anchovyBatch =  anchovy_batches[_id];\r\n        _anchovyBatch.exist = !_anchovyBatch.exist;\r\n        emit AnchovyBatchToggleExist(_id, _anchovyBatch.exist);\r\n    }\r\n    function toggleExistFishmealBatch(uint256 _id) public {\r\n          FishmealBatch memory _fishmealBatch = fishmeal_batches[_id];\r\n         _fishmealBatch.exist = !_fishmealBatch.exist;\r\n         emit FishmealBatchToggleExist(_id, _fishmealBatch.exist);\r\n    }\r\n    function toggleExistFishemealPackagesBatch(uint256 _id) public {\r\n        FishmealPackages memory _fishmealPackagesBatch = fishmeal_packages_batches[_id];\r\n        _fishmealPackagesBatch.exist = _fishmealPackagesBatch.exist;\r\n        emit FishmealPackagesToggleExist(_id, _fishmealPackagesBatch.exist);\r\n    }\r\n   \r\n}",
  "sourcePath": "C:\\Users\\USUARIO\\Documents\\Github\\Solidity-System\\contracts\\FishmealTraceability.sol",
  "compiler": {
    "name": "solc",
    "version": "0.8.6+commit.11564f7e.Emscripten.clang"
  },
  "schemaVersion": "3.4.16",
  "updatedAt": "2024-07-07T21:07:06.983Z",
  "networkType": "ethereum",
  "devdoc": {
    "kind": "dev",
    "methods": {},
    "version": 1
  },
  "userdoc": {
    "kind": "user",
    "methods": {},
    "version": 1
  }
}